:020000041000EA
:10100000500500201D100010000000009D10001071
:101010000018040000010000000000801149124A7D
:10102000124B00F018F8124880471249124A134B2D
:1010300000F011F81249134A134B00F00CF8134951
:10104000134A0020521A02DD043A8850FCDC114891
:101050008047114880479B1A03DD043BC858D05095
:10106000FBDC7047C4C600100C00002050010020BB
:10107000A110001008C80010500500209C06002098
:1010800054C900109C0600209C0600209C060020ED
:10109000E80C002009C20010C9880010FEE700001B
:1010A00080B500AF05F006FD05F04AFDBD4680BDE8
:1010B00080B500AF2A4B1A68FF231B0213401A0A9F
:1010C000284B1A60274B1B68002B37D0244B1B681A
:1010D000FF221A40244B1A60214BDB690322134084
:1010E0001A02214B1B681A431F4B1A601C4BDA690A
:1010F00080239B0013400ED11A4B1B689A021A4B97
:101100001B68D3181948191C01F0B8F8031C1A0100
:10111000174B1A6021E000F02FF8031C9901114BC6
:101120001B689A02104B1B68D318081C191C01F08D
:10113000A5F8031C1A010E4B1A600EE0084BDA6981
:1011400080239B00134003D1094B0A4A1A6004E034
:1011500000F012F8021C064B1A60BD4680BDC04666
:10116000000301409C060020A006002000001BB7E1
:10117000FC3F0020006CDC0280B500AF014B181C66
:10118000BD4680BD002D310180B582B000AF7860D2
:10119000BD4602B080BDC04680B500AF00F01AF871
:1011A000021C012313405A1E9341DBB2181CBD469A
:1011B00080BDC04680B500AF0549054B9B889BB2FA
:1011C000C022920113439BB28B80BD4680BDC046B6
:1011D0000000054080B500AF024B1B889BB2181C75
:1011E000BD4680BD0000054080B582B000AF78608C
:1011F000396082235B001B6839687A68081C111CFF
:101200009847BD4602B080BD80B586B000AFF8609B
:10121000B9607A601A1CFB1C1A70294A284B9B88FB
:101220009BB2FF218B439BB293802549244B9B8823
:101230009BB2C022920113439BB28B80FB1C1B7894
:10124000002B08D01E4A1E4B9B889BB261210B438A
:101250009BB2938007E01A4A194B9B889BB2A1214D
:101260000B439BB2938000233B611AE000237B6118
:101270000CE0BB681A68FB681A60BB680433BB608B
:10128000FB680433FB607B6901337B617B69032B63
:10129000EFD9C046FFF780FF031EFBD13B69013346
:1012A0003B613A697B689A42E0D3054A044B9B88CC
:1012B0009BB2FF218B439BB29380BD4606B080BD9D
:1012C0000000054080B584B000AF7860396000232D
:1012D000FB6011E080235B001B687A68101C984754
:1012E000C046FFF759FF031EFBD17B680133FF3374
:1012F0007B60FB680133FB60FA683B689A42E9D384
:10130000BD4604B080BDC04680B586B000AFF86071
:10131000B9607A6000233B6115E000237B610CE03B
:10132000FB681A68BB681A60BB680433BB60FB6863
:101330000433FB607B6901337B617B69032BEFD94D
:101340003B6901333B613A697B689A42E5D3BD460C
:1013500006B080BD80B582B000AF786039607A6831
:101360003B68101C191CFFF73FFFBD4602B080BD53
:1013700090B585B000AFF8607A600B23FB180A1CAB
:101380001A700B23FB181B789B08DBB2181C0B236D
:10139000FB181B789B08DBB21A1CFB680432920016
:1013A000D3580B22BA18127803210A40D200111C1C
:1013B000FC228A40D2431A40111CFB68021D920095
:1013C000D150FB685B6F0B22BA1812785200111CC7
:1013D00003228A40D2431A40FB685A670B23FB184A
:1013E0001B78DB08DBB2181C0B23FB181B78DB080F
:1013F000DBB21A1CFB6810329200D3580B22BA18C9
:10140000127807210A409200111C04228A40D2431C
:101410001A40111CFB68021C10329200D1500B23A1
:10142000FB181B78DB08DBB2181C0B23FB181B789E
:10143000DB08DBB21A1CFB6810329200D2587B68C2
:101440005B781C1C0B23FB181B7807210B409B00AF
:101450009C40231C1A43111CFB68021C1032920092
:10146000D150FB68204A93420CD1FB681B6E0B22C3
:10147000BA181278012191400A1CD2431A40FB6825
:101480001A660DE07B681B78DBB25BB2002B07DAD3
:101490007B685A680B23FB181B789A40FB685A60DC
:1014A0000B23FB181B789B08DBB2181C0B23FB18C3
:1014B0001B789B08DBB21A1CFB6804329200D258DE
:1014C0007B681B781C1C0B23FB181B7803210B402B
:1014D000DB009C40231C1A43111CFB68021D920078
:1014E000D150BD4605B090BD0002044080B582B029
:1014F00000AF786003E0C0467B68013B7B607B689F
:10150000002BF8D1BD4602B080BDC046B0B582B058
:1015100000AF38607960094B084A51683A680A435D
:101520005A60064B054A526A79680C0000210D1C6E
:10153000211C0A435A62BD4602B0B0BD38000140CA
:10154000B0B582B000AF0E4B1B683B6000237B60E0
:101550000B4B1B6A1C1C00231D1C22000023191CA2
:101560000B1C141C3A681A433A607A682243131C15
:101570007B603B687C68181C211CBD4602B0B0BD76
:1015800038000140B0B582B000AF38607960094BD7
:10159000084A91683A680A439A60064B054A926A7B
:1015A00079680C0000210D1C211C0A439A62BD467B
:1015B00002B0B0BD3800014080B500AF024BC3227D
:1015C0005A62BD4680BDC0460000014080B500AFF4
:1015D000054BC0225A62C046034B5B6A042213408B
:1015E000FAD1BD4680BDC0460000014080B582B042
:1015F00000AF7860FFF7EAFF7B689B79302B3CD027
:10160000FFF7BAFD021E364B9A4209D9354A3549D1
:101610009023CB5A9BB240210B4399B29023D152D5
:10162000304A30499023CB5A9BB29BB2191C3223CB
:1016300099430B1C99B27B689B799BB20B439BB27D
:1016400099B29023D152284B02229A62274B274A03
:10165000526927490A405A61244B244A5269802121
:1016600089040A435A61234B181CFFF73FFF1E4BA6
:101670001B6A02221340E6D109E01A4A1949902355
:10168000CB5A9BB230210B4399B29023D152154AC9
:101690007B68DB7999B28C23D152144B134AD269FF
:1016A00015490A40796889880A43DA610F4A0F4B65
:1016B0001B68124919407B68DB6819437B689B688B
:1016C0000B431360FFF778FF7B689B781A1C7B68DD
:1016D0001B88101C191C00F02DF8BD4602B080BDFF
:1016E000002D31010010014038000140000301408D
:1016F000FFFFFFFDC4090000FFFDFFFFFFFFF0FF3C
:1017000080B582B000AF7860FFF760FF084B084AF1
:1017100011697A680A431A61C046054B1A6880232A
:10172000DB051340F9D1FFF747FFBD4602B080BD8E
:101730000003014080B584B000AF78603960FFF7E6
:1017400045FF274B1A68FF231B0213401B0AFB604F
:10175000234B234AD26903218A43111C3A68120A97
:101760000A43DA611E4B1E4A12681E4911403A684C
:10177000FF2002400A431C490A431A60C046184B26
:101780001A688023DB051340F9D1FA687B689A4216
:1017900006D8FA687B68101C191C00F053F805E0A5
:1017A000FA687B68101C191C00F022F80C4B0C4ADC
:1017B00012680E4911407A6812020A430A490A4324
:1017C0001A60C046064B1A688023DB051340F9D126
:1017D000FFF7F2FEFFF76CFCBD4604B080BDC046CB
:1017E0000003014000FF0FC00000F03FFF000FC0EA
:1017F00080B582B000AF7860396014E07B689B08E8
:101800007B600D4B0C4A12680C4911407A68120239
:101810000A430B490A431A60C046074B1A688023E3
:10182000DB051340F9D13B689A007B689A42E5D307
:10183000BD4602B080BDC04600030140FF000FC09E
:101840000000F03F80B582B000AF7860396019E0E9
:101850007B68002B01D101237B607B689B007B6050
:101860000C4B0C4A12680C4911407A6812020A4368
:101870000A490A431A60C046064B1A688023DB05F2
:101880001340F9D17B689A003B689A42E0D3BD4689
:1018900002B080BD00030140FF000FC00000F03F18
:1018A00080B500AF024B1B68181CBD4680BDC0460A
:1018B000FC3F0020F0B587B000AFB860F9607A60F7
:1018C00000227A6102E07A6901327A617A69111C38
:1018D0002039002903DBF868C840031C08E02021F8
:1018E000891AF8688840011CB868D040031C0B4373
:1018F000F968D1400C1C01221A40151C002222401C
:10190000161C2A1C324302D17A693F2ADBD97B6933
:10191000402B04D11323FB1801221A7008E0084B56
:101920007A6992007968D1501323FB1800221A704B
:101930001323FB181B78181CBD4607B0F0BDC0462A
:10194000A4060020F0B58FB000AFF86100237B63E0
:10195000FFF7F6FD384AFB69DB00D3181A685B68AD
:10196000161C0640BE620B40FB62BA6AFB6A101C82
:10197000191CFFF707FE55E07B6B1A1C203A002A62
:1019800003DBF96AD1400C1C08E02022D21AF96A64
:1019900091400A1CB96AD9400C1C1443FA6ADA4017
:1019A000151C01232340BB6000232B40FB60B9685A
:1019B000FA680B1C134332D07B6B1A1C203A002AA6
:1019C00003DB0121914079610AE02022D21A012132
:1019D000D1400A1C002199407961796911437961EC
:1019E00001229A403A6139697A690B1CDB433B60FA
:1019F000131CDB437B60BB6A38687968021C1340A8
:101A0000BB62FB6A0A1C1340FB620C4B7A6B9200B0
:101A1000D3587B627B6A002B01D07B6A98477B6B33
:101A200001337B63BB6AFA6A134302D07B6B3F2BA3
:101A3000A2D9BD460FB0F0BD50050020A40600207D
:101A400080B582B000AF021CFB1D1A703B1D0A1C42
:101A50001A803B1D3A1D128803210A401A80FB1D83
:101A60001B780F2B13D8184B174AD26EF91D097823
:101A70004900081C03218140C9430A40391D0988D7
:101A8000F81D0078400081400A43DA6618E0FB1D2B
:101A9000FA1D12780F210A401A700B4B0A4A126F76
:101AA000F91D09784900081C03218140C9430A40F7
:101AB000391D0988F81D0078400081400A431A67E3
:101AC000BD4602B080BDC0460000014080B582B076
:101AD00000AF78607B68DB68802252001A437B6825
:101AE000DA60BD4602B080BD80B582B000AF7860DC
:101AF0007B68094A934203D10420FFF701FE08E006
:101B00007B68064A934204D180239B02181CFFF78E
:101B1000F7FDBD4602B080BD000004480040044807
:101B200080B582B000AF78607B68181CFFF7DCFFDF
:101B3000BD4602B080BDC04680B584B000AF7860BD
:101B40000A1CFB1C1A707B68181CFFF7E9FF7B68F6
:101B5000181CFFF7BBFF7B681B68FB60FB68074A2C
:101B60001340FB60FB1C1B789B03FA681343FB606C
:101B70007B68FA681A60BD4604B080BDFF3FFFFF76
:101B800080B582B000AF786039603B681A687B68C6
:101B90005A613B685B799B06DB0FDBB21A057B68F9
:101BA0005A603B681B791B071B0FDBB21A1C7B6852
:101BB0005A623B685B791B071B0FDBB21A1C7B6800
:101BC0001A623B685B79DB06DB0FDBB21A1C7B68B1
:101BD0009A613B681B791B061B0FDBB21A1C7B68E2
:101BE000DA62BD4602B080BD80B586B000AF7860D5
:101BF000081C111CFB1C021C1A70BB1C0A1C1A704E
:101C00007B68A8229B58FB60FB1C1B78092B1AD809
:101C10009A001A4BD3181B689F4603233B6100238D
:101C20007B6116E00C233B6102237B6111E0C02342
:101C30009B003B6108237B610BE0C0231B013B61E0
:101C40000A237B6105E0C0239B013B610C237B6180
:101C5000C0463B69DA43FB681340FB60BB1C1A7843
:101C60007B699A40131CFA681343FB607B68A821C8
:101C7000FA685A50BD4606B080BDC04664C2001026
:101C800080B584B000AFF8607A600B23FB180A1CA3
:101C90001A70FB68181CFFF777FAFB681B680B22A9
:101CA000BA1812789200111C0F228A40D2431A40AF
:101CB0007B681B680B217918097889008B401A43CF
:101CC000FB681A600B23FB181A787B685968FB685D
:101CD00004329200D150BD4604B080BD90B583B0AF
:101CE00000AF7860081C111CFB1C021C1A70BB1C86
:101CF0000A1C1A70FB1C1A78BB1C1B7803210B40B2
:101D0000D9B27B6808329200032001400901D05803
:101D10003024A0430143D150BD4603B090BDC0461E
:101D200090B583B000AF7860081C111CFB1C021C2E
:101D30001A70BB1C0A1C1A70FB1C1B789B08DBB2B8
:101D4000181CFB1C1B789B08DBB21A1C7B68043236
:101D50009200D358FA1C127803210A40D200111CB9
:101D6000FC228A40D2431A40111C7B68021D92005B
:101D7000D150FB1C1B789B08DBB21C1CFB1C1B7886
:101D80009B08DBB21A1C7B6804329200D258BB1C41
:101D90001B78F91C097803200140C9008B401A43C5
:101DA000111C7B68221D9200D150BD4603B090BD2E
:101DB00080B582B000AF7860081C111CFB1C021CAF
:101DC0001A70BB1C0A1C1A707B685B6FFA1C1278B5
:101DD0005200111C03228A40D2431A407B685A6782
:101DE0007B685A6FBB1C1B78F91C097849008B4033
:101DF0001A437B685A67BD4602B080BD80B582B089
:101E000000AF78607B689B6BDBB27F229343DBB2D1
:101E1000181CBD4602B080BD80B582B000AF7860AE
:101E200039607B68DA6C3B681A437B68DA64BD46CC
:101E300002B080BD80B582B000AF786039607B6849
:101E4000181C00F067FB7B680E4A5A633B689B884E
:101E50007A68101C191C00F017F83B681B687A6838
:101E6000101C191C00F038F87B68A022D2009A637D
:101E70007B6801225242DA647B6800221A64BD4604
:101E800002B080BD03033F0780B582B000AF786029
:101E90000A1CBB1C1A80BB1C1A88F823DB011A40E1
:101EA000F023DB019A420ED1BB1C1B88FF221A4093
:101EB000BB1C1B885B00191CFE231B020B401A4332
:101EC0007B68DA6304E0BB1C1B881A027B68DA6358
:101ED000BD4602B080BDC04680B584B000AF78601A
:101EE00039600F23FB1801221A703B681D4A934288
:101EF00013D87B68DB6B1C4A1A407B68DA637A680C
:101F00003B68101C191C0A2200F040FB031E21D163
:101F10000F23FB1800221A701CE03B68134A9342FF
:101F200014D87B68DB6B802292021A437B68DA63E9
:101F30007A683B68101C191C192200F027FB031E4D
:101F400008D10F23FB1800221A7003E00F23FB189F
:101F500001221A700F23FB181B78181CBD4604B011
:101F600080BDC046A0860100FFFFFDFF801A06006D
:101F700080B584B000AF7860081C111CBB1C021C2B
:101F80001A807B1C0A1C1A70BB1C1B888022D20082
:101F900013439BB2FB607B1C1B78012B03D1FB68B6
:101FA00001221343FB607A6884235B00D258E0234C
:101FB000DB04134013D1C0467B68181CFFF71EFFDB
:101FC000031E802BF8D07A6880239B01101C191CFB
:101FD000FFF722FF7B688021FA685A5004E07A6894
:101FE000C0235B00F968D150BD4604B080BDC04637
:101FF00080B584B000AF7860081C111CBB1C021CAB
:102000001A807B1C0A1C1A70BB1C1B88A022D200E1
:1020100013439BB2FB607B1C1B78012B03D1FB6835
:1020200001221343FB607A6884235B00D258E023CB
:10203000DB04134013D1C0467B68181CFFF7DEFE9B
:10204000031E802BF8D07A6880239B01101C191C7A
:10205000FFF7E2FE7B688021FA685A5004E07A6854
:10206000C0235B00F968D150BD4604B080BDC046B6
:1020700080B582B000AF78607A6884235B00D25864
:10208000E023DB04134014D1C0467B68181CFFF723
:10209000B5FE031E802BF8D07A6880239B01101CAC
:1020A000191CFFF7B9FE7B688021C022D2005A506C
:1020B00005E07A68C0235B00C021C900D150BD464D
:1020C00002B080BD80B582B000AF78600A1CFB1CF6
:1020D0001A707A6884235B00D258E023DB04134033
:1020E00014D1C0467B68181CFFF788FE031E802BA6
:1020F000F8D07A6880239B01101C191CFFF78CFE16
:10210000FB1C1A787B6880215A5005E0FB1C19786B
:102110007A68C0235B00D150BD4602B080BDC04686
:1021200080B582B000AF78607A6884235B00D258B3
:10213000E023DB04134014D1C0467B68181CFFF772
:102140005DFE031E802BF8D07A6880239B01101C53
:10215000191CFFF761FE7B688021802292005A5093
:1021600005E07A68C0235B0080218900D150BD461C
:1021700002B080BD80B582B000AF78607A688423F9
:102180005B00D258E023DB04134014D1C0467B68C7
:10219000181CFFF733FE031E802BF8D07A688023CB
:1021A0009B01101C191CFFF737FE7B688021C022A1
:1021B00092005A5005E07A68C0235B00C021890074
:1021C000D150BD4602B080BD80B584B000AF78600C
:1021D0007A6886235B00D258E023DB04134005D1E4
:1021E0007B685A6D0F23FB181A7006E07A688E23FD
:1021F0005B00D2580F23FB181A700F23FB181B78B3
:10220000181CBD4604B080BD80B582B000AF7860B8
:1022100039607B681A6C3968FE235B020B401A43F5
:102220007B681A647B68DA6B3B6804490B401A438D
:102230007B68DA63BD4602B080BDC0460000FC4149
:1022400080B582B000AF786039607B681B6C3968FC
:10225000FE2252020A40D2431A407B681A647B680D
:10226000DB6B3A6804490A40D2431A407B68DA6360
:10227000BD4602B080BDC0460000FC4180B588B0BC
:1022800000AF78603960EFF310837B617B693B615D
:1022900072B63B69FB610C4B04225A630A4B7A68A5
:1022A0001A62094B3A685A62074B9B6ABB61FB6929
:1022B000FB60FB68BB60BB6883F31088BB69181CBC
:1022C000BD4608B080BDC0460000034080B588B060
:1022D00000AF78603960EFF310837B617B693B610D
:1022E00072B63B69FB610C4B00225A630A4B7A6859
:1022F0001A62094B3A685A62074B9B6ABB61FB69D9
:10230000FB60FB68BB60BB6883F31088BB69181C6B
:10231000BD4608B080BDC04600000340F0B58DB09A
:1023200000AF78603960EFF310827A617A693A61C0
:1023300072B63A69FA62154A04215163134A796800
:102340001162124A39685162104AD26A3A62002216
:102350007A620E4A926ABA610022FA61FA6AFA60F7
:10236000FA68BA60BA6882F310883A6A14000022E8
:10237000131CBA691A43151CFA692243161C2B1C3C
:10238000341C181C211CBD460DB0F0BD00000340DC
:1023900080B582B000AF78607B689B6BDBB27F2238
:1023A0009343DBB2181CBD4602B080BD80B582B03D
:1023B00000AF786039607B683A68DA64BD4602B085
:1023C00080BDC04680B584B000AF7860396010230E
:1023D000FB607B68181C00F09DF83B68DB79002BE4
:1023E00002D03B68DB79FB603B681A687968FB6860
:1023F000081C111C1A1C00F0C9F83B689B79013BB2
:102400005A00FB685B0801331B021343194A1A4345
:102410007B68DA633B681B79013B1B068122520013
:102420001A437B685A633B685B79002B09D07B6851
:102430005A6B3B685B79013B1B041A437B685A6308
:1024400008E07B685A6B3B681B79013B1B041A430D
:102450007B685A637B68A022D2009A637B68012262
:102460005242DA643B681B891A1C7B681A64BD46B9
:1024700004B080BD0100030080B582B000AF786079
:102480000A1CBB1C1A807A6884235B00D258E023A4
:10249000DB04134014D1C0467B68181CFFF778FF9B
:1024A000031E802BF8D07A6880239B01101C191C16
:1024B000FFF77CFFBB1C1A887B6880215A5005E01F
:1024C000BB1C19887A68C0235B00D150BD4602B09E
:1024D00080BDC04680B584B000AF78607A6886233E
:1024E0005B00D258E023DB04134005D17B685A6DB2
:1024F0000E23FB181A8006E07A688E235B00D25800
:102500000E23FB181A800E23FB181B88181CBD46CF
:1025100004B080BD80B582B000AF78607A68902347
:10252000DB059A4203D07B68134A934204D1134BD4
:10253000181C00F097F90BE07B68114A934203D016
:102540007B68104A934203D10F4B181C00F08AF9A4
:102550007B680322DA60C0467B68DB680122134097
:10256000FAD07B681B6C0F2293431A1C7B681A6499
:10257000BD4602B080BDC0460002004808000048C9
:1025800000400048004200480840004880B58EB036
:1025900000AFF860B9607A60BB68632B5CD97B6878
:1025A000002B59D0FFF77CF9031C181C6421FFF79E
:1025B00065FE031C3B62BB68181C6421FFF75EFECE
:1025C000031CBB600123FB620123BB62284B7B62BF
:1025D000274B3B6324E03B6A3A6B5A43111CBB68B0
:1025E0007A685343081C191CFFF748FE031CFB6163
:1025F000FB699B0ABB61FB699B059B0D7B61BB690A
:102600001B4A934209D87A697B6A9A4205D27B6950
:102610007B62BB69BB623B6BFB623B6B013B3B6319
:102620003B6B002BD7D1FB6A802212021A43FB6856
:102630001A61FB685B690F4A1A407B68013B9B0289
:102640001A43BB6A013B1B041A43FB685A613723D8
:10265000FB1800221A7003E03723FB1801221A70BE
:102660003723FB181B78181CBD460EB080BDC04632
:10267000FF030000EF8000FC80B584B000AFF8607D
:10268000B9603B60FB1D1A70FA6884235B00D35865
:102690000E4A1340191CFA6884235B00D150FA6873
:1026A00084235B00D3580A4A1A403B681902BB686E
:1026B0001943FB1D1B781B060B431A43111CFA68B8
:1026C00084235B00D150BD4604B080BDFFFFFFF8FE
:1026D000C0C0FFF880B584B000AFF860B9603B605F
:1026E000FB1D1A70FA6886235B00D358104A13400A
:1026F000191CFA6886235B00D150FA6886235B00B8
:10270000D3580C4A1A403B681902BB681943FB1D99
:102710001B781B060B431343802252051A43111CDE
:10272000FA6886235B00D150BD4604B080BDC04628
:10273000FFFFFFF8C0C0FFEF80B584B000AFF860C6
:102740007A600B23FB180A1C1A70FA6886235B0058
:10275000D3580E4A1340191CFA6886235B00D150E7
:10276000FA6886235B00D358094A1A407B681B022B
:102770001A430B23FB181B781B061A43111CFA681B
:1027800086235B00D150BD4604B080BDFFFFFFF83B
:10279000FFC0FFFF80B584B000AFF8607A600B2304
:1027A000FB180A1C1A70FB689B690B22BA18127876
:1027B000072191400A1CD2431A400B23FB181B78B7
:1027C000796899400B1C1A43FB689A61BD4604B0B6
:1027D00080BDC04680B584B000AFF8607A600B233E
:1027E000FB180A1C1A70FA6884235B00D3580B226A
:1027F000BA181278072191400A1CD2431A400B23C1
:10280000FB181B78796899400B1C1A43111CFA6855
:1028100084235B00D150BD4604B080BD80B584B038
:1028200000AFF8607A600B23FB180A1C1A70FA6874
:1028300086235B00D3580B22BA18127807219140E7
:102840000A1CD2431A400B23FB181B787968994065
:102850000B1C1A43111CFA6886235B00D150BD463D
:1028600004B080BD80B582B000AF78607B68094A53
:10287000934203D10820FEF743FF08E07B68064A35
:10288000934204D18023DB02181CFEF739FFBD46BA
:1028900002B080BD080000480840004880B500AF85
:1028A00080239B00181CFEF72BFFBD4680BDC04651
:1028B00080B582B000AF7860FFF7F0FF074A7B6811
:1028C0009B685360054A7B685B681361034A7B68B9
:1028D0001B685361BD4602B080BDC0460000024087
:1028E00080B500AFBD4680BD90B585B000AF7860C3
:1028F0000F23FB1800221A707B681B7B01225340B8
:10290000DBB2002B14D00F23FC187B68181C00F0DE
:1029100017F8031C23700F23FB181B78012B07D01B
:102920007B681B68181CFFF7C3FF7B6801221A73C2
:102930000F23FB181B78181CBD4605B090BDC04680
:1029400090B585B000AF78600F23FB1800221A7095
:102950007B685B680F22BC18181C02F0CFFA031CBE
:1029600023707B689B68002B14D00F23FB181B7807
:10297000012B0FD001200021FEF7C8FD7B689B686A
:102980000F22BC18012000211A1C02F02BFB031C93
:10299000237003E00F23FB1801221A700F23FB188A
:1029A0001B78181CBD4605B090BDC04680B582B0EE
:1029B00000AF786039607B681A6C3B681A437B68AB
:1029C0001A64BD4602B080BD80B582B000AF7860A9
:1029D00039607B681B6C3A68D2431A407B681A6482
:1029E000BD4602B080BDC04680B582B000AF786001
:1029F0007B689B6BDBB27F229343DBB2181CBD4626
:102A000002B080BD80B582B000AF786039603B68AD
:102A1000802252029A407B689A66BD4602B080BD11
:102A200080B582B000AF786039607A6884235B003B
:102A3000D2583B681A43111C7A6884235B00D1503A
:102A4000BD4602B080BDC04680B582B000AF7860A0
:102A500039607A6884235B00D3583A68D2431A40BD
:102A6000111C7A6884235B00D150BD4602B080BD42
:102A700080B582B000AF78607A688C235B008021DB
:102A80000902D150BD4602B080BDC04680B582B0BB
:102A900000AF78607A688A235B00D25880235B019C
:102AA00013405A1E9341DBB2181CBD4602B080BDD4
:102AB00080B582B000AF78607A688A235B00D25814
:102AC00080231B0113405A1E9341DBB2181CBD46E4
:102AD00002B080BD80B582B000AF786039607A689E
:102AE00086235B00D2583B681A43111C7A68862300
:102AF0005B00D150BD4602B080BDC04680B582B0FB
:102B000000AF786039607A6886235B00D3583A68F2
:102B1000D2431A40111C7A6886235B00D150BD460F
:102B200002B080BD80B582B000AF78607A688C2337
:102B30005B008021C901D150BD4602B080BDC046B6
:102B400080B582B000AF78607A688A235B00D35882
:102B5000082213405A1E9341DBB2181CBD4602B036
:102B600080BDC04690B585B000AF78600F23FB18DC
:102B700000221A707B685B685B680F22BC1898475C
:102B8000031C23700F23FB181B78181CBD4605B0CF
:102B900090BDC04690B587B000AFF860B9607A606C
:102BA0001723FB1804221A70FB685B6829229B5CC0
:102BB000002B00D00CE01723FC18F968BA687B687A
:102BC000081C111C1A1C00F031F8031C2370C046AD
:102BD0001723FB181B78181CBD4607B090BDC046D4
:102BE00090B587B000AFF860B9607A601723FB1822
:102BF00004221A70FB685B682A229B5C002B00D0C1
:102C00000CE01723FC18F968BA687B68081C111CD3
:102C10001A1C00F073F8031C2370C0461723FB181E
:102C20001B78181CBD4607B090BDC04680B586B065
:102C300000AFF860B9607A601723FB1804221A709D
:102C4000FB689B683B61FB685B6829229B5C002BEF
:102C50004CD11723FB1802221A703B691B7EDBB292
:102C600001225340DBB2002B40D0BB68002B39D08F
:102C70007B68002B36D03B69BA681A603B697A687A
:102C80009A603B690022DA603B6901221A76FB6890
:102C90005B682B229B5C002B0DD0FB681B68181C0B
:102CA000FFF7E6FEFB681A688023DB05101C191C81
:102CB000FFF7B6FE07E0FB681A6880239B01101C33
:102CC000191CFFF773FE1723FB1800221A70FB680C
:102CD0001968FB685B682D229B5C081C191CFFF7B8
:102CE00091FE03E01723FB1803221A701723FB1829
:102CF0001B78181CBD4606B080BDC04680B586B0A6
:102D000000AFF860B9607A601723FB1804221A70CC
:102D1000FB689B683B61FB685B682A229B5C002B1D
:102D200048D11723FB1802221A703B695B7EDBB285
:102D300001225340DBB2002B3CD0BB68002B35D0C6
:102D40007B68002B32D03B69BA685A603B697A686D
:102D50001A613B6901225A763B6900225A61FB687D
:102D60005B682C229B5C002B13D0FB681B68181C33
:102D7000FFF7D8FEFA687B68101C191C00F03EF9BA
:102D8000FB681A68C023DB05101C191CFFF7A2FEA4
:102D900007E0FB681A68C0231B02101C191CFFF710
:102DA00005FE1723FB1800221A7003E01723FB18F7
:102DB00003221A701723FB181B78181CBD4606B097
:102DC00080BDC04680B584B000AF78607B689B68EA
:102DD000FB60FB68DA68FB689B689A4241D27B68BB
:102DE0005B682B229B5C002B28D01AE0FB68DA681A
:102DF000FB689B689A4212D27B681968FB681A6864
:102E0000FB68DB68D3181B789BB2081C191CFFF702
:102E100033FBFB68DB685A1CFB68DA6001E0C046E4
:102E200055E07B681B68181CFFF730FE031C1A1C5A
:102E300001235340DBB2002BD8D148E07B681968EE
:102E4000FB681A68FB68DB68D3181B789BB2081C08
:102E5000191CFFF711FBFB68DB685A1CFB68DA6082
:102E600035E07B681B68181CFFF722FE031E2ED07E
:102E70007B685B682B229B5C002B08D07B681A6800
:102E80008023DB05101C191CFFF7DEFD07E07B68C3
:102E90001A6880239B01101C191CFFF795FDC04682
:102EA0007B681B68181CFFF79FFD031E802BF7D063
:102EB000FB6800221A76FB6800221A607B685B6858
:102EC0009B68002B03D07B685B689B689847BD4676
:102ED00004B080BD90B585B000AF78607B689B681A
:102EE000FB607B685B682C229B5C002B51D033E03D
:102EF000FB685A69FB681B699A4211D2FB685A68E1
:102F0000FB685B69D4187B681B68181CFFF7E2FA42
:102F1000031CDBB22370FB685B695A1CFB685A61B7
:102F2000FB685A69FB681B699A4215D1FB6800224D
:102F30005A767B681A68C023DB05101C191CFFF742
:102F4000DDFD7B685B68DB68002B04D07B685B6819
:102F5000DB6898470CE00BE07B681B68181CFFF7E8
:102F6000EFFD031C1A1C01235340DBB2002BBFD121
:102F7000FB685A69FB681B699A423CD2FB681A6974
:102F8000FB685B69D31A7A68101C191C00F036F8CC
:102F900031E0FB685A69FB681B699A4211D2FB68F1
:102FA0005A68FB685B69D4187B681B68181CFFF7BC
:102FB00091FA031CDBB22370FB685B695A1CFB6847
:102FC0005A61FB685A69FB681B699A4213D1FB6816
:102FD00000225A767B681A68C0231B02101C191C39
:102FE000FFF7F2FC7B685B68DB68002B03D07B6833
:102FF0005B68DB689847BD4605B090BD80B584B07E
:1030000000AF786039600023FB607B685B682C222E
:103010009B5C1A1C01239340BB603A68BB689A42D0
:1030200003D23B68013BFB6002E0BB68013BFB60F5
:103030007B6819687B685B682C229A5CFB68081CBB
:10304000111C1A1CFFF778FBBD4604B080BDC046BA
:1030500080B582B000AF021CFB1D1A70FB1D1B78EF
:103060007F2B09D8064BFA1D1278111C1F220A402B
:10307000012191400A1C1A60BD4602B080BDC046C5
:1030800000E100E0B0B582B000AF021C3960FB1D6A
:103090001A70FB1D1B787F2B27D82D4CFB1D1B782E
:1030A0005BB29B082A49FA1D127852B29208C032CC
:1030B00092005258F91D0978081C03210140C900EB
:1030C000081CFF218140C94311403A689201FF204A
:1030D0000240F81D0078051C03202840C0008240F3
:1030E0000A43C0339B001A512EE01A4CFB1D1B787B
:1030F0001A1C0F231340083B9908164AFB1D1B7826
:10310000181C0F230340083B9B0806339B00D31871
:103110005B68FA1D1278101C03220240D200101CBA
:10312000FF228240D2431A403B689B01FF200340AC
:10313000F81D0078051C03202840C00083401A4376
:103140008B1D9B00E3185A60BD4602B0B0BDC0465F
:1031500000E100E000ED00E080B582B000AF7860F3
:10316000081C111CFB1C021C1A70BB1C0A1C1A70C8
:10317000FB1C1878FB1C1B787A6806339B00D3185D
:103180005B68072293431A1CBB1C1B781A4379689F
:10319000831D9B00CB185A60BD4602B080BDC0465F
:1031A00080B582B000AF78607B681B6C0F229343C0
:1031B00002221A437B681A64BD4602B080BDC04635
:1031C00080B582B000AFFB1D00221A70374A384B21
:1031D000101C06211A1CFEF7CBF8364A364B101C81
:1031E000191CFFF7EFF8334B181C00210222FFF7E0
:1031F000B3FF304B181C03210022FFF7ADFF2D4B0E
:10320000181C05210022FFF7A7FF2A4B181C1021CC
:1032100004220123FFF730FA264B181C0021042258
:103220000023FFF757FA234B181CFFF7B9FF1F4A7B
:10323000224B101C07211A1CFEF79AF81D4B181C74
:1032400010210022FFF7A6FA1A4B181C10210322A6
:10325000FFF7C0FA174B181C10210222FFF7DEFA05
:10326000144B181C13210222FFF7D8FA0C2003215B
:10327000FFF708FFC0231B010C20191CFEF7E0FB21
:103280000C20FFF7E5FE0B200321FFF7FBFEB02328
:103290001B010B20191CFEF7D3FB0B20FFF7D8FEF8
:1032A000FB1D1B78181CBD4602B080BD0000044009
:1032B000DCC20010000200488CC2001098C200104E
:1032C00080B500AF024B181CFFF77CFDBD4680BDEA
:1032D0008405002080B500AF024B181CFFF7FAFDF3
:1032E000BD4680BD8405002080B582B000AF786007
:1032F0000A1CFB1C1A707B68DA68FB1C1B78012116
:1033000099400B1C1A437B68DA60BD4602B080BD51
:1033100080B582B000AF78607B680122DA60BD467C
:1033200002B080BD80B582B000AF78607B680222B9
:103330001A61BD4602B080BD80B582B000AF786032
:103340000A1CBB1C1A80BB1C1A887B685A63BD46CA
:1033500002B080BD80B582B000AF78600A1CBB1C93
:103360001A80BB1C1A887B68DA63BD4602B080BD38
:1033700080B582B000AF786039607B683A681A61C6
:10338000BD4602B080BDC04680B582B000AF786057
:103390000A1CFB1C1A707B68A4229A58FB1C1B7821
:1033A000012199400B1C1A437B68A4215A50BD4649
:1033B00002B080BD90B585B000AF78600F23FB18D8
:1033C00000221A707B6826229B5C01225340DBB2EC
:1033D000002B0CD07B6821229B5C002B07D10F2394
:1033E000FC187B68181C00F009F8031C23700F23DD
:1033F000FB181B78181CBD4605B090BD90B585B074
:1034000000AF78607B681B690F22BC18181C01F0A4
:103410000FFE031C23707B681B699A687B681B7E08
:10342000101C191CFFF760FF7B685A697B68DB6919
:10343000101C191CFEF7A4FB7B68181C00F030F868
:103440007B6825229B5C002B0FD07B6859697B68C9
:1034500020229B5C081C00211A1CFEF7C5FB7B6820
:103460005B69181C0021FFF78FFF7B685B69181CE4
:10347000FFF758FF7B682622012199547B6824229C
:103480009B5C002B04D07B685B69181CFFF740FF36
:103490000F23FB181B78181CBD4605B090BDC04615
:1034A00080B582B000AF78607B685A697B685B8CBE
:1034B000101C191CFFF740FF7B685B69181C00217A
:1034C000FFF748FF7B681B699A687B68DB68101C04
:1034D000191CFFF74DFFBD4602B080BD80B582B01C
:1034E00000AF021CFB1D1A70FB1D1B787F2B09D837
:1034F000064BFA1D1278111C1F220A40012191402F
:103500000A1C1A60BD4602B080BDC04600E100E062
:1035100080B582B000AF021CFB1D1A70FB1D1B782A
:103520007F2B0AD80649FB1D1B781A1C1F2313404A
:1035300001229A40C0235B00CA50BD4602B080BD44
:1035400000E100E0B0B582B000AF021C3960FB1DA5
:103550001A70FB1D1B787F2B27D82D4CFB1D1B7869
:103560005BB29B082A49FA1D127852B29208C03207
:1035700092005258F91D0978081C03210140C90026
:10358000081CFF218140C94311403A689201FF2085
:103590000240F81D0078051C03202840C00082402E
:1035A0000A43C0339B001A512EE01A4CFB1D1B78B6
:1035B0001A1C0F231340083B9908164AFB1D1B7861
:1035C000181C0F230340083B9B0806339B00D318AD
:1035D0005B68FA1D1278101C03220240D200101CF6
:1035E000FF228240D2431A403B689B01FF200340E8
:1035F000F81D0078051C03202840C00083401A43B2
:103600008B1D9B00E3185A60BD4602B0B0BDC0469A
:1036100000E100E000ED00E080B582B000AF78602E
:103620007B6859687B689A7F7B680833081C111C8B
:103630001A1CFDF79DFE7B6819687B681A7F7B6802
:103640001033081C111C1A1CFEF71AFB7B681A6841
:103650007B685B7F101C191C0122FEF73FFB7B6817
:103660009A7E7B68DB7E191C53B2181CFFF76AFF39
:103670007B689B7EDAB27B681B8B101C191CFEF7E3
:10368000DFF97B68DB7F002B0BD07B689B7E5BB216
:10369000181CFFF73DFF7B689B7E5BB2181CFFF791
:1036A0001DFF0023181CBD4602B080BD80B582B04E
:1036B00000AF021CFB1D1A70FB1D1B787F2B09D865
:1036C000064BFA1D1278111C1F220A40012191405D
:1036D0000A1C1A60BD4602B080BDC04600E100E091
:1036E000B0B582B000AF021C3960FB1D1A70FB1D23
:1036F0001B787F2B27D82D4CFB1D1B785BB29B08BA
:103700002A49FA1D127852B29208C03292005258D9
:10371000F91D0978081C03210140C900081CFF217C
:103720008140C94311403A689201FF200240F81DD0
:103730000078051C03202840C00082400A43C033A3
:103740009B001A512EE01A4CFB1D1B781A1C0F23EC
:103750001340083B9908164AFB1D1B78181C0F23C1
:103760000340083B9B0806339B00D3185B68FA1D97
:103770001278101C03220240D200101CFF2282404B
:10378000D2431A403B689B01FF200340F81D00789C
:10379000051C03202840C00083401A438B1D9B005A
:1037A000E3185A60BD4602B0B0BDC04600E100E07B
:1037B00000ED00E080B582B000AF78607B689B7858
:1037C0005BB2181CFFF772FFBD4602B080BDC04659
:1037D00080B582B000AF78607B689A787B68DB78D0
:1037E000191C53B2181CFFF77BFF7B689B78DAB279
:1037F0007B689B785BB21B0299B27B681B889BB28B
:103800000B439BB29BB2101C191CFEF719F97B6885
:103810001B79002B03D07B68181CFFF7CBFF00231C
:10382000181CBD4602B080BD80B582B000AF021C3E
:10383000FB1D1A70FB1D1B787F2B0AD80649FB1D48
:103840001B781A1C1F23134001229A40C0235B00DF
:10385000CA50BD4602B080BD00E100E080B582B034
:1038600000AF786039607B681A6C3B681A437B68EC
:103870001A64BD4602B080BD80B582B000AF7860EA
:1038800039607B681B6C3A68D2431A407B681A64C3
:10389000BD4602B080BDC04680B582B000AF786042
:1038A0007B689B6BDBB27F229343DBB2181CBD4667
:1038B00002B080BD80B582B000AF786039603B68EF
:1038C000802252029A407B689A66BD4602B080BD53
:1038D00080B582B000AF786039607A6884235B007D
:1038E000D2583B681A43111C7A6884235B00D1507C
:1038F000BD4602B080BDC04680B582B000AF7860E2
:1039000039607A6884235B00D3583A68D2431A40FE
:10391000111C7A6884235B00D150BD4602B080BD83
:1039200080B582B000AF78607A688A235B00D25895
:1039300080235B0113405A1E9341DBB2181CBD4625
:1039400002B080BD80B582B000AF78607A688A230B
:103950005B00D25880231B0113405A1E9341DBB2F7
:10396000181CBD4602B080BD80B582B000AF786043
:1039700039607A6886235B00D2583B681A43111C71
:103980007A6886235B00D150BD4602B080BDC04638
:1039900080B582B000AF786039607A6886235B00BA
:1039A000D3583A68D2431A40111C7A6886235B00C8
:1039B000D150BD4602B080BD80B582B000AF786006
:1039C0007A688C235B008021C901D150BD4602B0CA
:1039D00080BDC04680B582B000AF78607A688A2327
:1039E0005B00D358082213405A1E9341DBB2181CC7
:1039F000BD4602B080BDC04680B582B000AF7860E1
:103A00000A1CFB1C1A70FB1C1B787A68101C102106
:103A10001A1CFEF7BFFEBD4602B080BD80B582B065
:103A200000AF78607B689B6C181CBD4602B080BDFF
:103A300080B582B000AF786039607B68DA6C3B6833
:103A40001A437B68DA64BD4602B080BD80B584B09D
:103A500000AFF860B9607A60FB681968BB68DAB2D9
:103A60007B68081C111C1A1CFEF766FEBD4604B0DC
:103A700080BDC04680B582B000AF78607B681B68AF
:103A8000181CFFF74DFF031C181CBD4602B080BD7B
:103A900080B582B000AF78607B681B68181CFFF7A8
:103AA00099FF031C181CBD4602B080BD80B582B0D2
:103AB00000AF78607B681B68181CFEF785FB031C51
:103AC000181CBD4602B080BD80B582B000AF7860E2
:103AD0000A1CFB1C1A707B681A68FB1C1B78101CE4
:103AE000191CFEF7EFFABD4602B080BD80B582B06A
:103AF00000AF786039607B681A683B68101C191C3D
:103B0000FEF782FBBD4602B080BDC04680B582B0E4
:103B100000AF786039607B681A683B68101C191C1C
:103B2000FEF78EFBBD4602B080BDC04680B582B0B8
:103B300000AF78607B681B68181CFEF7F1FABD4681
:103B400002B080BD80B582B000AF78607B681B6832
:103B5000181CFEF70FFBBD4602B080BD80B582B0D9
:103B600000AF78607B681B68181C1021FFF760FFAE
:103B70007B681B68181CFEF77BFABD4602B080BD4F
:103B800080B584B000AFF860B960FB1D1A70FB68A7
:103B90001B68181C0421FFF74BFFFB681968BB6802
:103BA0009AB2FB1D1B78081C111C1A1CFEF7E0F9C9
:103BB000BD4604B080BDC04680B584B000AFF8609B
:103BC000B960FB1D1A70FB681B68181C0821FFF701
:103BD0002FFFFB681968BB689AB2FB1D1B78081C95
:103BE000111C1A1CFEF704FABD4604B080BDC04685
:103BF00080B584B000AF786039607A683B689A42DB
:103C000002D27B68FB6001E03B68FB60FB68181C2C
:103C1000BD4604B080BDC04680B584B000AF7860BA
:103C20007B68002B08D07B685B685B6898470F2334
:103C3000FB1800221A7003E00F23FB1801221A70F0
:103C40000F23FB181B78181CBD4604B080BDC0466E
:103C500080B584B000AF786039607B681B68181C41
:103C6000FFF7DCFE031CFB60FB683A681340181C7E
:103C7000BD4604B080BDC04680B582B000AF78605C
:103C800039607B681A683B68101C191CFFF7D0FE6E
:103C9000BD4602B080BDC046B0B588B002AFF86086
:103CA0007A603B600B23FB180A1C1A701723FB1861
:103CB00002221A70FB685B6824229B5C002B12D1E5
:103CC0001723FC18F8680B23FB1819787A683D68ED
:103CD000BB6A00932C23FB181B7801932B1C00F06C
:103CE000A9FB031C23701723FB181B78181CBD4667
:103CF00006B0B0BD80B584B000AF78607B689B68CB
:103D0000BB600F23FB1800221A707A68B1235B0096
:103D1000101C191CFFF79CFF031E14D07B681A6847
:103D20008023DB05101C191CFFF7E6FD7B681A6871
:103D300080239B01101C191CFFF79EFD7B68181C3B
:103D400000F0FEFD1FE1BB689B69002B00D08CE0FA
:103D50007B685B6826229B5C002B63D0BB68DA68BB
:103D6000BB689B689A4234D27A688023DB05101CBA
:103D7000191CFFF7CBFE7B681A688023DB05101C3B
:103D8000191CFFF7A5FD18E0BB68DA68BB689B68E3
:103D90009A4210D2BB681A68BB68DB68D3181B78DC
:103DA0007A68101C191CFFF78FFEBB68DB685A1C71
:103DB000BB68DA6001E0C046E5E07B68181CFFF7ED
:103DC00059FE031C1A1C01235340DBB2002BDBD12C
:103DD000D9E07B681A688023DB05101C191CFFF7EB
:103DE0008BFD7B685B6828229B5C5BB2181CFFF72D
:103DF0001BFDC0467B681B68181CFFF7A3FD031C56
:103E00001A1C01235340DBB2002BF3D1BB682822DC
:103E10009B5CDBB2002B00D1B5E07B68181C00F086
:103E2000B5F8B0E0BB68DA68BB689B689A4210D20C
:103E3000BB681A68BB68DB68D3181B787A68101CEB
:103E4000191CFFF741FEBB68DB685A1CBB68DA60CF
:103E500099E0BB6828229B5CDBB2002B00D192E08A
:103E60007B68181C00F092F88DE07B685B68262266
:103E70009B5C002B5FD07B685B6827229B5C002BE0
:103E800017D07B685B6826229B5C1A1C0123934039
:103E9000191C7B685B6827229B5C1A1C01239340DA
:103EA000081C191CFFF7A4FE021C0F23FB181A7034
:103EB00003E00F23FB1802221A707B681A68802324
:103EC000DB05101C191CFFF717FD27E0BB68DA683B
:103ED000BB689B689A4220D2BB68DB685A1CBB68EF
:103EE0009B689A4208D1BB681B6A012B04D17B688E
:103EF000181CFFF727FE03E07B68181CFFF716FE6F
:103F0000BB68DB685A1CBB68DA60BB68DA680F23E1
:103F1000FB181B789A4201D30CE00BE07B68181C5D
:103F2000FFF7A8FD031C1A1C01235340DBB2002B32
:103F3000CCD119E018E0BB68DB685A1CBB689B68F1
:103F40009A4208D1BB681B6A012B04D17B68181CFC
:103F5000FFF7F8FD03E07B68181CFFF7E7FDBB687F
:103F6000DB685A1CBB68DA607B689B68DA687B6830
:103F70009B689B689A4206D17A688023DB05101CF7
:103F8000191CFFF7C3FDBD4604B080BD80B584B0E9
:103F900000AF78607B689B68FB607A688023DB05F4
:103FA000101C191CFFF7B2FDFB68DB69012B07D160
:103FB000FB682822002199547B68181CFFF7CEFD6E
:103FC000C0467B681B68181CFFF766FC031E802B2D
:103FD000F7D0FB682622002199547B685B681B6937
:103FE000002B03D07B685B681B699847BD4604B013
:103FF00080BDC046B0B58AB004AFF8607A603B605F
:104000000B23FB180A1C1A701723FB1802221A70C4
:10401000FB685B6825229B5C002B16D11723FC18DC
:10402000F8680B23FB1819787A683D68BB6A00931F
:104030002C23FB181B7801933023FB181B78029369
:104040002B1C00F075FA031C23701723FB181B7838
:10405000181CBD4606B0B0BD80B586B000AFF86094
:104060007A603B600B23FB180A1C1A70FB689B6884
:104070007B61FB681B68181CFFF79EFCFA683B68B5
:10408000101C191C00F0A4FCFB681A68C023DB0597
:10409000101C191CFFF768FC0B23FB181B78002B66
:1040A00000D178E0FB685B6824229B5C012B15D073
:1040B000FB685B6824229B5C022B0FD0FA6880238C
:1040C000DB05101C191CFFF711FDFB6819687B69E3
:1040D00024229B5C081C191CFFF78EFCFA687B6885
:1040E000101C191C012200F079F9FB685B6824227E
:1040F0009B5C022B00D0B2E0FB685B6826229B5CD5
:10410000002B2ED021E07B69DA687B699B689A429C
:1041100019D27B69DB685A1C7B699B689A4208D17B
:104120007B691B6A012B04D1FB68181CFFF70AFD91
:1041300003E0FB68181CFFF7F9FC7B69DB685A1C7D
:104140007B69DA6001E0C04689E0FB68181CFFF774
:1041500091FC031C1A1C01235340DBB2002BD2D16B
:104160007DE07B69DB685A1C7B699B689A4208D1B9
:104170007B691B6A012B04D1FB68181CFFF7E2FC6A
:1041800003E0FB68181CFFF7D1FC7B69DB685A1C55
:104190007B69DA6063E0FB685B6826229B5C002B2E
:1041A00036D0FB681A688023DB05101C191CFFF74A
:1041B000A3FB21E07B69DA687B699B689A4219D28C
:1041C0007B69DB685A1C7B699B689A4208D17B69D2
:1041D0001B6A012B04D1FB68181CFFF7B3FC03E03A
:1041E000FB68181CFFF7A2FC7B69DB685A1C7B6923
:1041F000DA6001E0C04632E0FB68181CFFF73AFCC9
:10420000031C1A1C01235340DBB2002BD2D126E041
:104210007B69DA687B699B689A4220D27B69DB689C
:104220005A1C7B699B689A4208D17B691B6A012BE7
:1042300004D1FB68181CFFF785FC0BE0FB681A68CB
:10424000F2231B02101C191CFFF7F2FBFB68181C61
:10425000FFF76CFC7B69DB685A1C7B69DA60BD4642
:1042600006B080BD80B586B000AFF8607A600B23E1
:10427000FB180A1C1A70FB689B687B61FB681A6854
:10428000C0231B02101C191CFFF7E8FA0B23FB18B4
:104290001B78002B49D0FB685B6824229B5C012BB8
:1042A00015D0FB685B6824229B5C022B0FD0FA6858
:1042B0008023DB05101C191CFFF718FCFB6819682C
:1042C0007B6924229B5C081C191CFFF795FBFA688C
:1042D0007B68101C191C012200F080F8FB685B68E9
:1042E00024229B5C012B06D0FB685B6824229B5C2C
:1042F000022B00D06EE07B69DB685A1C7B699B68EF
:104300009A4208D17B691B6A012B04D1FB68181CF7
:10431000FFF718FC03E0FB68181CFFF707FC7B693C
:10432000DB685A1C7B69DA6054E0FB685B68262214
:104330009B5C002B19D17B69DB685A1C7B699B68ED
:104340009A4208D17B691B6A012B04D1FB68181CB7
:10435000FFF7F8FB03E0FB68181CFFF7E7FB7B693E
:10436000DB685A1C7B69DA6034E0FB681A688023DA
:10437000DB05101C191CFFF7BFFA20E07B69DA6827
:104380007B699B689A4219D27B69DB685A1C7B69FE
:104390009B689A4208D17B691B6A012B04D1FB6898
:1043A000181CFFF7CFFB03E0FB68181CFFF7BEFBF0
:1043B0007B69DB685A1C7B69DA6000E00AE0FB6815
:1043C000181CFFF757FB031C1A1C01235340DBB2D8
:1043D000002BD3D1BD4606B080BDC04680B584B0A9
:1043E00000AFF860B960FB1D1A70FB689B6828225B
:1043F0009B5CDBB2002B0AD0BB689BB2191CFA682D
:10440000FB1D1B78101C1A1CFFF7D6FB0EE0FB6887
:104410009B68282201219954BB689BB2191CFA6839
:10442000FB1D1B78101C1A1CFFF7AAFBBD4604B02D
:1044300080BDC04680B586B000AFF8607A603B6052
:104440000B23FB180A1C1A701723FB1802221A7080
:10445000FB689B683B610B23FB181B7801225340D0
:10446000DBB2002B09D0FB689B6828229B5CDBB287
:1044700001225340DBB2002B05D13B68002B02D058
:104480003B6A002B04D11723FB1801221A7047E066
:104490003B6900229A613B6926229B5CDBB20122C8
:1044A0005340DBB2002B3BD03B693A681A603B6952
:1044B0003A6A9A603B690022DA603B692622012150
:1044C00099542423FB181A783B69DA61FA6880232F
:1044D000DB05101C191CFFF709FBFB6819683B6919
:1044E00024229B5C081C191CFFF786FA0B23FB187F
:1044F0001B78002B07D0FA687B68101C191C00225F
:10450000FFF76CFF08E0FB6819683B6924229B5C9D
:10451000081C191CFFF7CEF91723FB1800221A708C
:104520001723FB181B78181CBD4606B080BDC0467B
:1045300080B586B000AFF8607A603B600B23FB1853
:104540000A1C1A701723FB1802221A70FB689B685A
:104550003B61FB68002B17D00B23FB181B78012253
:104560005340DBB2002B09D0FB689B6828229B5C80
:10457000DBB201225340DBB2002B05D13B68002B9C
:1045800002D03B6A002B04D11723FB1801221A70BA
:104590004CE03B6927229B5CDBB201225340DBB23B
:1045A000002B43D03B6901229A613B693A685A600B
:1045B0003B693A6A1A613B693A681A603B693A6A30
:1045C0009A603B692622012199543B6927220121E7
:1045D00099542423FB181A783B69DA612823FB18C5
:1045E0001A783B691A623B6900225A613B690022D2
:1045F000DA60FB685B6827229B5C002B08D0F868B8
:104600000B23FB1819787A683B6AFFF725FD09E050
:10461000F9680B23FB181A787B68081C111C1A1CFC
:10462000FFF720FE1723FB1800221A701723FB1830
:104630001B78181CBD4606B080BDC04690B585B03D
:1046400000AF78607B689B68BB600F23FB1800227B
:104650001A70BB6827229B5CDBB2002B00D132E1D1
:104660007B685B6827229B5C002B00D1E3E022E0A3
:10467000BB685A68BB685B69D4187B68181CFFF775
:1046800015FA031C2370BB685B695A1CBB685A612E
:10469000BB685A69BB681B699A420CD1BB68272268
:1046A000002199547B681A68C023DB05101C191C73
:1046B000FFF76EF90AE07B68181CFFF7E9F9031CA5
:1046C0001A1C01235340DBB2002BD1D1BB685A69BD
:1046D000BB681B699A4200D38CE0BB681A69BB684F
:1046E0005B69D31A7A68101C191C00F071F97B6899
:1046F0005B6826229B5C002B17D07B685B682622B8
:104700009B5C1A1C01239340191C7B685B68272261
:104710009B5C1A1C01239340081C191CFFF768FAC4
:10472000021C0E23FB181A7003E00E23FB18022252
:104730001A707B685B6826229B5C002B41D033E0BB
:10474000BB68DA68BB689B689A422CD2BB68DB689E
:104750005A1CBB689B689A4208D1BB681B6A012B34
:1047600004D17B68181CFFF7EDF903E07B68181C87
:10477000FFF7DCF9BB68DB685A1CBB68DA600F2303
:10478000FB180F22BA18127801321A700F23FA1888
:104790000E23FB1812781B789A4205D30F23FB18BF
:1047A00000221A700CE00BE07B68181CFFF762F91E
:1047B000031C1A1C01235340DBB2002BC0D119E0AB
:1047C00018E0BB68DB685A1CBB689B689A4208D13A
:1047D000BB681B6A012B04D17B68181CFFF7B2F978
:1047E00003E07B68181CFFF7A1F9BB68DB685A1C63
:1047F000BB68DA60BB685A69BB681B699A4262D1C0
:104800007B681A68C023DB05101C191CFFF7C0F871
:104810007B681A68C0231B02101C191CFFF72CF8B8
:10482000BB6828229B5CDBB2002B4CD07B68181C39
:1048300000F04CF847E0BB685A68BB685B69D41865
:104840007B68181CFFF732F9031C2370BB685B6997
:104850005A1CBB685A61BB685A69BB681B699A429B
:104860001FD2BB68DA68BB689B689A422BD2BB68D0
:10487000DA68BB689B68013B9A4208D1BB681B6A37
:10488000012B04D17B68181CFFF75CF903E07B68FF
:10489000181CFFF74BF9BB68DB685A1CBB68DA6071
:1048A00011E07B681A68C0231B02101C191CFEF75C
:1048B000E3FFBB6828229B5CDBB2002B03D07B6844
:1048C000181C00F003F8BD4605B090BD80B584B05B
:1048D00000AF78607B689B68FB60FB68DB69012B3D
:1048E00010D1C0467B681B68181CFEF7D5FF031E5D
:1048F000802BF7D0FB682822002199547B68181C74
:10490000FFF72CF9C0467B681B68181CFEF7C4FF34
:10491000031E802BF7D0FB68272200219954FB68E7
:104920002622002199547B685B685B69002B03D0C9
:104930007B685B685B699847BD4604B080BDC04634
:1049400080B584B000AF78607B681B68181CFFF7E7
:1049500065F8031CFB607B685B689B69002B0CD0CF
:10496000FB682022134008D07B68181C2021FFF729
:1049700083F97B685B689B6998477B685B68DB6948
:10498000002B0CD0FB684022134008D07B68181C19
:104990004021FFF771F97B685B68DB6998477B68AA
:1049A0005B681B6A002B0FD0FA6881235B00134001
:1049B0000AD07A6880235B00101C191CFFF75CF991
:1049C0007B685B681B6A9847BD4604B080BDC046E3
:1049D00080B586B000AF786039607B685B6827225D
:1049E0009B5C1A1C012393401A1C1623FB181A7097
:1049F0007B685B6826229B5C002B0BD07B685B6826
:104A000026229B5C1A1C012393401A1C1723FB18B7
:104A10001A7003E01723FB1801221A701723FB18E2
:104A20001A781623FB181B78101C191CFFF7E0F8E6
:104A3000031C3B613A683B69101C191CFFF7D8F84E
:104A4000021C0F23FB181A707B685B6827229B5C93
:104A5000191C0F23FB181B78013B7A68101C1A1CC9
:104A6000FEF7F4FFBD4606B080BDC04680B582B0FB
:104A700000AF021CFB1D1A70FB1D1B787F2B09D891
:104A8000064BFA1D1278111C1F220A400121914089
:104A90000A1C1A60BD4602B080BDC04600E100E0BD
:104AA000B0B582B000AF021C3960FB1D1A70FB1D4F
:104AB0001B787F2B27D82D4CFB1D1B785BB29B08E6
:104AC0002A49FA1D127852B29208C0329200525806
:104AD000F91D0978081C03210140C900081CFF21A9
:104AE0008140C94311403A689201FF200240F81DFD
:104AF0000078051C03202840C00082400A43C033D0
:104B00009B001A512EE01A4CFB1D1B781A1C0F2318
:104B10001340083B9908164AFB1D1B78181C0F23ED
:104B20000340083B9B0806339B00D3185B68FA1DC3
:104B30001278101C03220240D200101CFF22824077
:104B4000D2431A403B689B01FF200340F81D0078C8
:104B5000051C03202840C00083401A438B1D9B0086
:104B6000E3185A60BD4602B0B0BDC04600E100E0A7
:104B700000ED00E080B582B000AF7860081C111C29
:104B8000FB1C021C1A70BB1C0A1C1A70FB1C187838
:104B9000FB1C1B787A6806339B00D3185B680722DE
:104BA00093431A1CBB1C1B781A437968831D9B0016
:104BB000CB185A60BD4602B080BDC04680B582B0F9
:104BC00000AF786039607A6884235B00D2583B6814
:104BD0001A43111C7A6884235B00D150BD4602B091
:104BE00080BDC04680B582B000AF786039607A6819
:104BF00086235B00D2583B681A43111C7A688623CF
:104C00005B00D150BD4602B080BDC04680B582B0C9
:104C100000AF78600A1CFB1C1A707B681B6C0F22AB
:104C200093431A1CFB1C1B781A437B681A64BD460D
:104C300002B080BD80B582B000AF78607B68181C80
:104C40000421FFF7E3FFBD4602B080BD80B500AF91
:104C5000064B181C00210022FDF762F8034B181CBC
:104C600001210022FDF75CF8BD4680BD0000044034
:104C700080B500AFE423074A101C00211A1CFDF781
:104C80004FF8E023034A101C01211A1CFDF748F8D5
:104C9000BD4680BD0000044080B582B000AF002357
:104CA0007B60C023DB053B60414A424B101C191C52
:104CB000FDF7C0F83E4B181C00210022FFF75AFFF9
:104CC0003B4B181C01210022FFF754FF384B181CE6
:104CD00003210022FFF74EFF354B181C0421002250
:104CE000FFF748FF324B181C05210022FFF742FF57
:104CF0002F4B181C102104220123FDF7BDFC2C4B67
:104D0000181C10210122FDF765FD294A7B68101C43
:104D1000191CFFF753FF264B181C002104220F23F8
:104D2000FDF7D8FC224B181C10210022FDF776FD60
:104D30001F4B181C13210022FDF770FD1C4A3B6815
:104D4000101C191CFFF74EFF194B181C10210122D3
:104D5000FDF720FD164B181CFFF76CFF164A174B8A
:104D6000101C00211A1CFCF703FB134A144B101CE7
:104D700001211A1CFCF7FCFA0A200321FFF790FE20
:104D8000104B0A20191CFCF75BFE0A20FFF76EFE91
:104D900009200321FFF784FE0B4B0920191CFCF7A7
:104DA0004FFE0920FFF762FEBD4602B080BDC0463F
:104DB000004200481CC30010000004400CC3001057
:104DC00014C30010010A00000109000080B500AF03
:104DD000024B181CFEF78EFFBD4680BDEC0500207F
:104DE00080B500AF024B181CFFF728FCBD4680BD04
:104DF000EC05002080B582B000AF021CFB1D1A70CC
:104E0000FB1D1B787F2B09D8064BFA1D1278111C4D
:104E10001F220A40012191400A1C1A60BD4602B0BF
:104E200080BDC04600E100E0B0B582B000AF021C1A
:104E30003960FB1D1A70FB1D1B787F2B27D82D4C6A
:104E4000FB1D1B785BB29B082A49FA1D127852B2EF
:104E50009208C03292005258F91D0978081C0321AB
:104E60000140C900081CFF218140C94311403A6834
:104E70009201FF200240F81D0078051C0320284005
:104E8000C00082400A43C0339B001A512EE01A4CE6
:104E9000FB1D1B781A1C0F231340083B9908164A68
:104EA000FB1D1B78181C0F230340083B9B0806338F
:104EB0009B00D3185B68FA1D1278101C0322024075
:104EC000D200101CFF228240D2431A403B689B0153
:104ED000FF200340F81D0078051C03202840C00077
:104EE00083401A438B1D9B00E3185A60BD4602B0F5
:104EF000B0BDC04600E100E000ED00E080B584B048
:104F000000AF78607B681B7901225340DBB2002B35
:104F100044D07B681B681B780020191CFFF784FFB6
:104F20007B681B685B780120191CFFF77DFF7B689D
:104F30001B689B780220191CFFF776FF7B681B68B3
:104F4000DB78002B06D000200021FCF779FD002043
:104F5000FFF750FF7B681B681B79002B08D080236C
:104F60005B000120191CFCF76BFD0120FFF742FFDD
:104F70007B681B685B79002B08D080239B00022094
:104F8000191CFCF75DFD0220FFF734FF7B6801224E
:104F90001A710F23FB1800221A7003E00F23FB186D
:104FA00001221A700F23FB181B78181CBD4604B091
:104FB00080BDC04680B500AF0020FCF7C3FCBD46F5
:104FC00080BDC04680B500AF0120FCF7BBFCBD46EC
:104FD00080BDC04680B500AF0220FCF7B3FCBD46E3
:104FE00080BDC046B0B586B000AFB860F9607A60E9
:104FF0001723FD18BB68FC687A68181C211CFCF795
:1050000059FC031C2B701723FB181B78181CBD467A
:1050100006B0B0BD80B582B000AF78607B68DB6859
:10502000802252001A437B68DA60BD4602B080BD20
:1050300080B582B000AF78607B685B7B0122534013
:10504000DBB2002B0FD07B689A687B681B7B101C3F
:10505000191CFCF771FD7B689B68181CFFF7DAFFD1
:105060007B6801225A730023181CBD4602B080BD24
:1050700080B582B000AF021CFB1D1A700B4A0B4BAF
:105080001B899BB206218B439BB213810749074BB7
:105090001B899AB2FB1D1B789BB2DB189BB2134392
:1050A0009BB20B81BD4602B080BDC04600000540EA
:1050B00080B586B000AF78607B681B7A002B00D18A
:1050C00084E000237B617B685A687B69DB00D3182E
:1050D0003B613B6900221A603B691A7902218A43CD
:1050E0001A713B691A7901210A431A713B691A79CD
:1050F00004218A431A713B691A7908218A431A717B
:105100007B6901337B617B685B7A1A1E7B699A42FB
:10511000D9D87B685A68C2235B000021D1507B68D4
:105120005A68C0235B000021D1507B685A68BA23BB
:105130005B000021D1507B685A68BC235B000021D2
:10514000D1507B685A68BE235B000021D1507B6838
:105150005B680022DA667B685B6800229A657B6880
:105160005B6800221A657B685B6800221A647B68B2
:105170005B680022DA637B685B680022DA647B6824
:105180005B6800225A657B685A68B8235B0000217F
:10519000D1507B685B6800229A630120FFF768FFAB
:1051A00000F0F4FF031CFB60FB68181C00F0AEF875
:1051B0007B685A68BA235B00D3580A2B03D17B68FB
:1051C00000221A7202E07B6801221A727B681B7A45
:1051D000181CBD4606B080BD80B584B000AF021C6F
:1051E0003960FB1D1A70104B5B68BB600F23FB1806
:1051F00005221A70BA68BA235B00D3580A2B0BD168
:10520000FB1D1A783B68101C191C002201F008F9DC
:10521000021C0F23FB181A700F23FB181B78181C95
:10522000BD4604B080BDC0461006002080B588B0E1
:1052300000AFB9607A603B600F23FB18021C1A7044
:10524000314B5B68BB610F23FB181B78181C00F007
:10525000F5FE031C7B612C4B1A687B69DB00D318BD
:105260005B683B611F23FB1805221A70BA69BA23D9
:105270005B00D3580A2B40D1BA683B68D2183B690F
:105280009A423AD8BA697B69DB00D3181B79DB07ED
:10529000DB0FDBB2002B04D11F23FB1803221A7093
:1052A0002BE0BA697B69DB00D3181B799B07DB0F06
:1052B000DBB2002B04D11F23FB1802221A701CE062
:1052C000BB697A69D200D158BA69C6235B00D15054
:1052D00079683A68BB68081C111C1A1C01F008FBAD
:1052E000021C1F23FB181A701F23FB181B78002BAE
:1052F00003D01F23FB1801221A701F23FB181B78F1
:10530000181CBD4608B080BD1006002080B584B0D2
:1053100000AF7860254B5B68FB607B68032B07D18F
:10532000FA68BC235B00DD21D15000F041F839E080
:105330007B68012B18D1FA68BC235B00D3580F227D
:105340001340191CFA68BC235B00D150FA68BC23D7
:105350005B00D358D0221A43111CFA68BC235B00AF
:10536000D15000F041F81DE07B68022B18D1FA689B
:10537000BC235B00D358F0221340191CFA68BC23ED
:105380005B00D150FA68BC235B00D3580D221A434E
:10539000111CFA68BC235B00D15000F025F801E035
:1053A00000F076F8BD4604B080BDC046100600206F
:1053B00080B582B000AF0B4B5B687B60094B9B7A7A
:1053C000012B07D17B6800229A630120012100F0A4
:1053D00057F904E07A68BA235B000921D150BD4631
:1053E00002B080BD1006002080B582B000AF274B10
:1053F0005B687B607A68BC235B00D358AD2B1AD006
:1054000004D80D2B29D02D2B07D038E0D22B0BD070
:10541000DA2B19D0D02B29D031E07B6800229A6397
:10542000302000F099F92DE07B6801229A6330204A
:1054300000F092F926E07B6800229A6300200721A1
:10544000012200F0C3F91DE07B6801229A6300206D
:105450000721012200F0BAF914E07B6801229A6367
:1054600020200321002200F0B1F90BE07B6800222C
:105470009A6320200321002200F0A8F902E0FFF740
:1054800097FFC046BD4602B080BDC0461006002052
:1054900080B500AF00F00EF8031E09D100F056F8F9
:1054A000031E05D100F09EF8031E01D1FFF780FF17
:1054B000BD4680BD80B582B000AF234B5B683B60CA
:1054C00001237B603A68BC235B00D3582E2B0AD0A3
:1054D00004D8202B1FD02A2B0DD02CE02F2B22D02C
:1054E000A02B10D027E03B6800229A630A200021FD
:1054F00000F0C6F822E03B6800229A6304203021C5
:1055000000F0EEF81AE03B6800229A6307200221BF
:1055100000F0B6F812E03B6800229A6303200221F3
:1055200000F0AEF80AE03B6800229A6308200221EE
:1055300000F0A6F802E000237B60C0467B68181CE0
:10554000BD4602B080BDC0461006002080B582B0C6
:1055500000AF234B5B683B6001237B603A68BC2350
:105560005B00D358A22B12D004D8022B1FD00A2BD9
:1055700015D02CE0E22B02D0F22B20D027E03B68A4
:1055800001229A630A20002100F07AF822E03B68A9
:1055900001229A630420302100F0A2F81AE03B684F
:1055A00001229A630720022100F06AF812E03B68AA
:1055B00001229A630320022100F062F80AE03B68AE
:1055C00001229A630820022100F05AF802E0002329
:1055D0007B60C0467B68181CBD4602B080BDC046DB
:1055E0001006002080B582B000AF244B5B683B60A2
:1055F00001237B603A68BC235B00D358F02B2CD08E
:1056000004D80F2B20D0AF2B0CD02FE0FA2B12D0C8
:10561000FF2B2BD13B6800229A630120012100F06F
:105620002FF826E03B6800229A6300200721012220
:1056300000F0CCF81DE03B6801229A6300200721AE
:10564000012200F0C3F814E03B6801229A63202095
:105650000321002200F0BAF80BE03B6800229A63B5
:1056600020200321002200F0B1F802E000237B603B
:10567000C0467B68181CBD4602B080BD10060020E5
:1056800080B584B000AF78603960144B5B68FB6014
:1056900000F046FD3B68012B09D1FA68BA235B0094
:1056A0007968D15000F0B0FA00F02EFB13E03B68AF
:1056B000022B09D1FA68BA235B007968D15000F057
:1056C00023FB00F0C3F806E000F01EFBFA68BA23E3
:1056D0005B007968D150BD4604B080BD1006002043
:1056E00080B584B000AF786039601A4B5B68FB60AE
:1056F00000F016FDFA68BA235B007968D15000F01B
:1057000003FBFB689B6C181C00F044FE031CBB6091
:10571000BB68002B16D100F0DBFDFB68DA6B3B6841
:10572000D318181C00F060FE031CBB60BB68002B84
:1057300002D100F08BF80AE0FA68BA235B00092175
:10574000D15004E0FA68BA235B000921D150BD466C
:1057500004B080BD1006002080B584B000AF786032
:10576000194B5B68FB6000F0DBFCFB689B6C181C52
:1057700000F010FE031CBB60BB68002B1BD100F0C7
:10578000A7FDFB68DA6B7B68D318181C00F02CFEB1
:10579000031CBB60BB68002B07D100F0B5FAFA68A8
:1057A000BA235B000A21D1500AE0FA68BA235B00F1
:1057B0000921D15004E0FA68BA235B000921D150D5
:1057C000BD4604B080BDC0461006002080B586B03E
:1057D00000AFF860B9607A601B4B5B687B6100F0DA
:1057E0009FFCFB68181C00F091FDFBF7E3FC7B6855
:1057F000012B08D17B69DA6B7B697033101C191C93
:1058000001F012F907E07B691A6C7B697033101C98
:10581000191C01F009F901F021F9031C3B613B69F6
:10582000002B09D17A69BA235B00B968D15000F026
:105830006BFA00F00BF804E07A69BA235B000921E7
:10584000D150BD4606B080BD1006002080B582B0A4
:1058500000AF244B5B687B607A68BA235B00D35847
:10586000082B2CD89A00204BD3181B689F4600F0B9
:1058700081F827E000F0E8F824E0FBF79BFC7B6868
:105880001A6C7B685C33101C191C01F0BDF87A6837
:10589000BA235B000521D15014E000F04BF911E070
:1058A0000720032100F072F90CE00320082100F02A
:1058B0006DF907E008200A2100F068F902E000F025
:1058C00015F8C0467A68BA235B00D3580A2B05D076
:1058D0007A68BA235B00D358092BBDD1BD4602B00C
:1058E00080BDC0461006002058C3001080B584B0AB
:1058F00000AF1F4B5B687B6000F0EAFC7B68DB6BF2
:105900001033181C00F070FD031C3B603B68002B3B
:1059100025D17B68BB600023FB60BB681A7904213A
:105920008A431A71FB680133FB60BB680833BB60B4
:105930000F4B5B7A1A1EFB689A42EED17A68BE233F
:105940005B000021D1507A68BA235B000121D1505D
:105950007B68DB6B5A1CFF327B68DA6304E07A6891
:10596000BA235B000921D150BD4604B080BDC046BA
:105970001006002080B584B000AF324B5B683B60FE
:105980000023FB603A68BE235B00D358BB60BB6852
:10599000DB003A68D3187B601AE07B681B68002B39
:1059A00010D07B681B7902221340DBB2002B09D098
:1059B0007B681B7904221340DBB2002B02D1012348
:1059C000FB6005E0BB680133BB607B6808337B602C
:1059D000FB68002B05D11B4B5B7A1A1EBB689A42F1
:1059E000DBD1FB68012B16D17B681A683B681A640F
:1059F0003B6800225A65FBF7DDFB3B681A6C3B688D
:105A00005C33101C191C00F0FFFF3A68BA235B00DE
:105A10000521D1500EE03B68DA6B3B68DA643B68E5
:105A20001A6D3B681A6400F07BFB3A68BA235B008E
:105A30000621D1503A68BE235B00B968D150BD46FB
:105A400004B080BD1006002080B586B000AF384B92
:105A50005B683B613A69BE235B00D3587B617B691D
:105A6000DB003A69D318FB603B69DB6B181C00F064
:105A7000BBFC031CBB60BB68002B4BD13B695B6D5F
:105A80005A1C3B695A652A4B1A687B69DB00D3189C
:105A90005B687B607B68181C00F000FB031C3B60AC
:105AA0003B695A6D3B689A4206D0FB681B7901221C
:105AB0001340DBB2002B1BD1FB681A7904210A4387
:105AC0001A717B6901337B613A69BA235B0001215A
:105AD000D1503B69DB6B10331A1C3B69DA633B69BD
:105AE000DA6B3B695B6D1B01D21AFB681A6016E02A
:105AF0003B691B6C10331A1C3B691A643B69DB6BF6
:105B000010331A1C3B69DA633A69BA235B0002213D
:105B1000D15004E03A69BA235B000921D1503A69B7
:105B2000BE235B007969D150BD4606B080BDC0463A
:105B30001006002080B582B000AF134B5B687B601D
:105B400000F0C6FB7B681B6C2033181C00F04CFC7B
:105B5000031C3B603B68002B0DD17B689B6B0122D3
:105B60005A407B689A6300F0DBFA7A68BA235B00DC
:105B70000721D15004E07A68BA235B000921D15093
:105B8000BD4602B080BDC0461006002080B584B07E
:105B900000AF786039601B4B5B68BB607B68072B8C
:105BA00009D100F095FBBB681B6C181C00F01CFCB5
:105BB000031CFB6014E07B68032B07D1BB689B6C64
:105BC000181C00F0E7FB031CFB6009E000F080FB01
:105BD000BB68DB6B3033181C00F006FC031CFB6059
:105BE000FB68002B05D1BA68BA235B003968D15035
:105BF00004E0BA68BA235B000921D150BD4604B065
:105C000080BDC0461006002080B582B000AF3B4B7F
:105C10005B687B607A68BA235B00D358042B02D0A0
:105C2000052B1FD035E0202000F070FBFBF7C2FAF7
:105C30007B687033324A101C191C00F0F5FE00F02E
:105C40000DFF031C3B603B68002B05D17A68BA232B
:105C50005B000521D15042E07A68BA235B0009213C
:105C6000D1503CE000F034FB264B181C00F0BCFB8C
:105C7000031C3B603B68002B05D17A68BA235B00AC
:105C80000A21D1502BE07A68BA235B000921D15058
:105C900025E07B685B6C181C00F07CFB031C3B6000
:105CA0003B68002B15D17B689B6C181C00F072FBC5
:105CB000031C3B603B68002B05D17A68BA235B006C
:105CC0000421D1500AE07A68BA235B000921D1503F
:105CD00004E07A68BA235B000921D150C0467A6893
:105CE000BA235B00D3580A2B05D07A68BA235B002D
:105CF000D358092B8ED1BD4602B080BD10060020BE
:105D0000002003103028031080B584B000AF394B59
:105D10005B687B607B689B6B002B02D1364BFB6022
:105D200001E0364BFB607B6800229A657A68C223EB
:105D30005B00FF21D1507A68C0235B000121D15064
:105D40007B681B6DFE22D2009A187B681A65FB687F
:105D5000181C00F055F8031CBB607A68C0235B0078
:105D6000D358012BF3D07B68DB6C002B05D17B680B
:105D70001B6D10331A1C7B68DA6431E0BB6820228B
:105D8000134002D100F09AF81BE07A68C2235B004E
:105D9000D358FF2B0DD07B683B607A68C2235B0031
:105DA000D358DB003A68D3183B603B68012252426B
:105DB0001A607A68C2235B00FF21D1507B68002201
:105DC0009A657B681A6DFB689A4205D17A68C02390
:105DD0005B000421D15003E000F00CF9031CBB6010
:105DE0007A68C0235B00D358042BC7D1BD4604B0EA
:105DF00080BDC046100600200021031000290310BA
:105E000080B586B000AF78602B4B5B687B61FBF799
:105E1000D1F97B691A6D7B695C33101C191C00F089
:105E2000F3FD00F01BFE031C3B613B692022134085
:105E30001BD07B69DB6C002B05D17B691B6D10339C
:105E40001A1C7B69DA647B691A6D7B689A4205D1FA
:105E50007A69C0235B000421D15028E07B691B6D67
:105E6000103B1A1C7B691A6521E07B695C33FB607F
:105E7000FB681B6801330AD07B699B6D5A1C7B69E8
:105E80009A657A69C0235B000221D1500FE07B69DB
:105E90001A6D7B689A4204D17A69C0235B000421A1
:105EA000D1507B691B6D103B1A1C7B691A653B69DD
:105EB000181CBD4606B080BD1006002080B588B015
:105EC00000AF4B4B5B68FB61FB695C33BB61172325
:105ED000FB18BA6912781A70BB695B783B61FB6981
:105EE000FB601723FB181B78181C00F0A7F8031C95
:105EF000BB60BB68FF2B00D16FE0BB68DB00FA68BA
:105F0000D318FB60FA69C2235B00B968D150FB6803
:105F10001B68002B58D13B698022134065D0FB6978
:105F20001A6DFB681A603B694022134014D0FB686D
:105F30001A7901210A431A713B691022134005D0D6
:105F4000FB681A7908210A431A710AE0FB681A797A
:105F500008218A431A7104E0FB681A7901218A43F7
:105F60001A71234B1A68BB68DB00D3185B687B602F
:105F70007B68181C00F092F8031C3B60FB699A6D6B
:105F80003B689A4205D1FB681A7902210A431A71CB
:105F900011E0FB681B7901221340DBB2002B05D016
:105FA000FB681A7902218A431A7104E0FB681A79A6
:105FB00002210A431A71FA69C2235B00FF21D15002
:105FC000FB6900229A6510E0FA69C2235B00FF2199
:105FD000D150FB6900229A6507E0FA69C2235B0091
:105FE000FF21D150FB6900229A65BD4608B080BDF3
:105FF0001006002080B582B000AF0F4B5B687B605D
:106000007B681B6D103B1A1C7B681A65FBF7D2F886
:106010007B681A6D7B685C33101C191C00F0F4FC63
:106020007B689B6D5A1C7B689A6500F017FD031C0A
:10603000181CBD4602B080BD1006002080B584B09B
:1060400000AF021CFB1D1A700023FB60124B1A6884
:10605000FB68DB00D318BB6005E0FB680133FB6025
:10606000BB680833BB600C4B5B7A1A1EFB689A4214
:1060700005D9BB681B78FA1D12789A42EDD1064B00
:106080005B7A1A1EFB689A4201D1FF23FB60FB6812
:10609000181CBD4604B080BD1006002080B584B039
:1060A00000AF78600123FB607B680C2B0FD97B6805
:1060B0000C3B7B60FB680133FB6005E0FB68013350
:1060C000FB607B680E3B7B607B680E2BF6D8FB6821
:1060D000181CBD4604B080BD80B584B000AF0D4B28
:1060E0005B68BB60BB689B6B002B02D10A4BFB60FB
:1060F00001E00A4BFB60BB68DB6CFA68D31A8022B4
:106100001201944663441B097B607B68181CBD46E2
:1061100004B080BD100600200020031000280310EA
:1061200080B582B000AF144B5B687B607B689B6B73
:10613000002B0FD17B68114A1A657B680F4A1A64DD
:106140007B680F4ADA637B680E4A5A647B680E4AA2
:106150009A640EE07B680A4A1A657B68084A1A64EA
:106160007B68064ADA637B68074A5A647B68054A9B
:106170009A64BD4602B080BD1006002000200310C6
:1061800000280310FF270310FF2F031080B588B0ED
:1061900000AF204B5B683B610023FB6100237B6108
:1061A0000023BB61FB695B00FB61BB699B08FB6073
:1061B000FB689B00BA69D31ABB60FA68BB68101C05
:1061C000191C00F029F8031C7B607B68013304D1A3
:1061D000FB6901221343FB610CE07B68002B09D0B3
:1061E000BB699B083B603B6801229A40131C7A699B
:1061F00013437B61BB690133BB61BB69072BD1D9F9
:106200003A69BC235B00F969D1507B69181CBD4613
:1062100008B080BD1006002080B58AB000AF78605D
:106220003960294B5B687B610023FB610023BB6104
:106230007B695C333B617B68244A94466344DA01A2
:106240003B68D3181B01FB60FAF7B4FFFA683B699F
:10625000101C191C00F0D8FB00F000FC031E02D03B
:10626000DD233B622BE000237B6216E07B6A9B0010
:106270003A69D3181B68002B02D1BB690133BB619B
:106280007B6A9B003A69D3181B68013302D1FB6912
:106290000133FB617B6A01337B627B6A032BE5D9A7
:1062A000FB69042B03D101235B423B6207E0BB691E
:1062B000042B02D100233B6201E0DD233B623B6AF9
:1062C000181CBD460AB080BD100600206400020004
:1062D00080B584B000AF0C4B5B68BB60BB685C33BF
:1062E0007B600023FB6008E0FB689B007A68D318A2
:1062F00000221A60FB680133FB60FB68032BF3D9B3
:10630000BD4604B080BDC0461006002080B588B0F0
:1063100000AF78601E4B5B68FB60FB6870333B61CD
:106320000023BB611EE0BB698022DA40131C7A683F
:10633000134002D100237B6102E001235B427B61B9
:106340000023FB6108E03B697A691A603B6904330A
:106350003B61FB690133FB61FB69032BF3D9BB692B
:106360000133BB61BB69032BDDD90023FB6109E06D
:106370003B69012252421A603B6904333B61FB696D
:106380000133FB61FB692F2BF2D9BD4608B080BDFC
:106390001006002080B584B000AF78607B68013BB8
:1063A000FF3B7B607B6801337B600023FB60FAF777
:1063B00001FF7B68181C00F045FB00F04FFB031C3D
:1063C000BB607B68013BFF3B7B60FB680133FB608C
:1063D000FB68072B02D8BB68002BE8D0BB68181CF1
:1063E000BD4604B080BDC04680B584B000AF7860C3
:1063F0000A4B5B68FB60FAF7DDFEFB685C337A688A
:10640000101C191C00F0F0FA00F028FB031CBB6004
:10641000BB68181CBD4604B080BDC04610060020F5
:1064200080B58CB000AFB9607A600F23FB18021CF6
:106430001A703B4B5B687B620023FB620023BB62EC
:106440000F23FB181B78181CFFF7F8FD031C3B6299
:10645000334B1A683B6ADB00D318FB61FB695B684E
:10646000181CFFF71BFE031CBB61FFF735FE031C66
:106470007B617A69BB699A4228D2294B1B7B012B2D
:1064800021D17A6ABA235B000421D150FFF7DEF9EB
:10649000FB695B68181CFFF701FE031CBB61FFF77B
:1064A0001BFE031C7B617A69BB699A4208D37A6A36
:1064B000BA235B00D3580A2B02D10123BB6207E049
:1064C0000523FB6204E00623FB6201E00123BB62BB
:1064D000BB6A012B1FD17B6A00229A657B68012B66
:1064E0000AD10F23FB181A783B6A101C191C00F004
:1064F000C9F8031CFB6209E00F23FB181A78BB687C
:10650000101C191C00F00EF8031CFB62FB6A002B28
:1065100001D00123FB62FB6A181CBD460CB080BD94
:106520001006002080B588B000AF021C3960FB1D4A
:106530001A70534B5B68BB61FB1D1B78181CFFF77F
:106540007DFD031C7B614E4B1A687B69DB00D31811
:106550003B613B695B68FB60BA69B8235B00002163
:10656000D150BA69C4235B000121D1500023FB61E3
:10657000BA69C4235B00D358022B02D0032B12D07C
:106580004AE000F08FF9031CFB61FB69002B09D185
:10659000FB1D19783A68FB68081C111C1A1C00F0D6
:1065A00029F943E042E000F07DF9031CFB61FB693F
:1065B000002B30D1BB69D96CBB697A69D200D1504C
:1065C000BA697B69DB00D3181A7901210A431A7171
:1065D000BA697B69DB00D3181A7902210A431A7160
:1065E000274BDB7A012B08D1BA697B69DB00D31812
:1065F0001A7908210A431A7107E0BA697B69DB003E
:10660000D3181A7908218A431A71BA69C4235B0026
:106610000021D1500AE009E0FB1D19783A68FB68B7
:10662000081C111C1A1C00F083F8C046FB69002BE3
:1066300005D1BA69C4235B00D358002B98D1BB693C
:10664000DA6CBB699B6D1B01D218BB69DA64FB690C
:10665000002B0FD0BA697B69DB00D3181A790121AE
:106660000A431A71BA697B69DB00D3181A790221CF
:106670008A431A71FB69181CBD4608B080BDC0462C
:106680001006002080B586B000AF021C3960FB1DEB
:106690001A70264B5B683B613B695C33FB60FB68AF
:1066A000FA1D12781A70FB68013380221A700223D7
:1066B0007B6107E0FA687B69D318FF221A707B6957
:1066C00001337B617B690F2BF4D900F0EBF8031CDD
:1066D000BB60BB68002B0ED13A693B68DB00D31866
:1066E0001A7902210A431A713B69D96C3B693A68ED
:1066F000D200D15007E03A693B68DB00D3181A7921
:1067000002218A431A713A693B68DB00D3181A796F
:1067100001218A431A713B69DB6C10331A1C3B69F7
:10672000DA64BB68181CBD4606B080BD10060020A8
:1067300080B58AB000AFB9607A600F23FB18021CE5
:106740001A702A4B5B683B623B6A5C33FB613A6AB6
:10675000C4235B000221D150254BBB6100237B6128
:106760000F23FB181A787B69C0210B431B021A43C5
:10677000BB691B041A43FB691A6004237B623A6AF3
:10678000B8235B00D2587B689A4214D2FA697B6ABC
:10679000D318396AB82252008A58B9688A18127810
:1067A0001A703A6AB8235B00D358591C3A6AB82366
:1067B0005B00D15004E0FA697B6AD318FF221A709B
:1067C0007B6A01337B627B6A102BD8D13A6AB8238B
:1067D0005B00D2587B689A4204D33A6AC4235B00B8
:1067E0000321D150BD460AB080BDC046100600202E
:1067F0000000A5A580B588B000AFB9607A600F230E
:10680000FB18021C1A70264B5B68BB61BB695C33CA
:106810007B617B690F22BA1812781A707B69013389
:1068200040221A700223FB61BA69B8235B00D25878
:106830007B689A4214D27A69FB69D318B969B82285
:1068400052008A58B9688A1812781A70BA69B8233F
:106850005B00D358591CBA69B8235B00D15009E0DA
:106860007A69FB69D318FF221A70BA69C4235B00E6
:106870000321D150FB690133FB61FB69102BD3D19C
:10688000BA69B8235B00D2587B689A4204D3BA69CC
:10689000C4235B000321D150BD4608B080BDC04673
:1068A0001006002080B584B000AF104B5B68FB6021
:1068B000FB68DA6CFB689B6D1B01D318BB60FB683F
:1068C0009B6D5A1CFB689A65FAF774FCFB685C3395
:1068D000BA68101C191C00F087F800F0BFF8031C00
:1068E0007B607B68181CBD4604B080BD100600208C
:1068F00080B58CB000AFF860B9607A600023FB62AD
:1069000000233B620023BB62364B5B68FB61FA6984
:10691000C6235B00D358BB617B680B2B13D9BB6AC2
:106920000133BB627B680C3B7B6005E0BB6A0133D3
:10693000BB627B680E3B7B607B680D2BF6D87B6867
:1069400002337B6002E07B6804337B607B6810224B
:10695000D31A7B62BB6A1A01BB69D3187B61FAF751
:1069600029FCFB695C337A69101C191C00F04CF897
:1069700000F074F8031C3B623B6A002B00D02BE054
:10698000FA68FB6AD318F96958207A688A181218CD
:1069900012791A70FB6A0133FB627B6801337B60FA
:1069A000BB68013BBB607B6A013B7B627B6A002B5F
:1069B00002D0BB68002BE3D1BB680E2B02D8BB68AA
:1069C0007B6201E00E237B6202237B60BB6A0133A2
:1069D000BB62BB68002BBDD13B6A181CBD460CB026
:1069E00080BDC0461006002080B582B000AF786040
:1069F00039607A683B68101C191C01220123FAF7E0
:106A000003FCBD4602B080BD80B582B000AF7860A7
:106A100039607A683B68101C191C0122FAF774FC73
:106A2000BD4602B080BDC04680B582B000AF786080
:106A300039607A683B68101C191CFAF78BFCBD465C
:106A400002B080BD80B582B000AF78607B68181C52
:106A50000121FAF737FCBD4602B080BD80B582B097
:106A600000AFFAF7B7FB031C7B607B68181CBD46C0
:106A700002B080BD80B582B000AF78607B681968D5
:106A80007B681A7B7B680433081C111C1A1CFAF7FC
:106A90006FFC7B6819687B681A7B7B685B7B081CD2
:106AA000111C1A1CFBF784F90023181CBD4602B008
:106AB00080BDC04680B500AFBD4680BD80B584B006
:106AC00000AF78600F23FB1800221A700E23FB180A
:106AD00000221A700D23FB1800221A700C23FB18D9
